:100000000C9462000C948A000C948A000C948A0070
:100010000C948A000C948A000C948A000C948A0038
:100020000C948A000C948A000C948A000C948A0028
:100030000C948A000C948A000C948A000C948A0018
:100040000C94FD060C948A000C948A000C948A008F
:100050000C948A000C948A000C948A000C948A00F8
:100060000C948A000C948A000000000024002700F1
:100070002A0000000000250028002B0000000000DE
:1000800023002600290004040404040404040202DA
:100090000202020203030303030301020408102007
:1000A0004080010204081020010204081020000012
:1000B0000008000201000003040700000000000027
:1000C0000000F90711241FBECFEFD8E0DEBFCDBF7F
:1000D00011E0A0E0B1E0EAE5F2E102C005900D9286
:1000E000A035B107D9F721E0A0E5B1E001C01D922C
:1000F000AA3FB207E1F710E0C2E6D0E004C02197C2
:10010000FE010E94EF08C136D107C9F70E944707D8
:100110000C942B090C94000096E0899FD0011124C7
:10012000AD58BE4F90967C936E935F9791E09196F9
:100130009C939197E091E001F091E1019091DF01B2
:10014000992339F0309751F0811108C080918F01C7
:100150000994309719F05C968C91FACF0895CF925C
:10016000DF92EF92FF920F931F9396E0899FF00129
:100170001124ED58FE4F11A2278D30A121303105F9
:1001800051F178F02230310509F451C023303105A6
:1001900009F452C01F910F91FF90EF90DF90CF9024
:1001A00008956623B9F361E070E00E948C002FB7D8
:1001B000F89480916F0190917001A0917101B091BC
:1001C00072012FBF8093CB019093CC01A093CD01FE
:1001D000B093CE01DFCF9FB7F894C0906F01D0905D
:1001E0007001E0907101F09072019FBF0091CB010E
:1001F0001091CC012091CD013091CE01C01AD10ACD
:10020000E20AF30A0091DD011091DE0130E020E006
:100210000C151D052E053F0550F462E070E01F919E
:100220000F91FF90EF90DF90CF900C948C006111B4
:10023000B1CF63E070E0F3CF70E060E0F0CFAF9259
:10024000BF92CF92DF92EF92FF920F931F93CF93C3
:10025000DF936C017B018B01040F151FEB015E0125
:10026000AE18BF08C017D10759F06991D601ED91BA
:10027000FC910190F081E02DC6010995892B79F759
:10028000C501DF91CF911F910F91FF90EF90DF900B
:10029000CF90BF90AF900895833081F028F48130E3
:1002A00099F08230A9F008958730A9F08830C9F01C
:1002B0008430B1F4809180008F7D03C080918000F4
:1002C0008F7780938000089584B58F7784BD0895DB
:1002D00084B58F7DFBCF8091B0008F778093B00085
:1002E00008958091B0008F7DF9CFCF93DF93282FB1
:1002F00030E0F901E255FF4F8491F901E656FF4FD6
:10030000D491F901EA57FF4FC491CC23A1F0811198
:100310000E944C01EC2FF0E0EE0FFF1FE458FF4F5E
:10032000A591B491EC91ED2381E090E009F480E097
:10033000DF91CF91089580E090E0FACF1F93CF93A3
:10034000DF93282F30E0F901E255FF4F8491F90146
:10035000E656FF4FD491F901EA57FF4FC491CC23E1
:10036000A9F0162F81110E944C01EC2FF0E0EE0F46
:10037000FF1FEE58FF4FA591B4918FB7F894EC9101
:10038000111108C0D095DE23DC938FBFDF91CF9190
:100390001F910895DE2BF8CFCF93DF93EC0180916E
:1003A0005D0190915E01029749F4C130D10509F4D5
:1003B0003BC06CF560E0209709F437C080915D0187
:1003C00090915E01049749F4C130D10509F45CC0F5
:1003D0000CF037C0209709F442C080915D019091E4
:1003E0005E01059709F0E5C0CA30D10508F0E1C00B
:1003F000FE01E350FE4F0C94EF085C0268027902A4
:100400008F02AA02AC02B302BF02D002D702C230EE
:10041000D105A9F060E0C330D10581F6809161017A
:100420000E949E0160E006C061E0809161010E942F
:100430009E0161E0809163010E949E01BFCF61E057
:10044000EDCFC230D10539F1C330D10509F0C5CFA8
:1004500061E0809161010E949E0160E022C061E044
:10046000809161010E949E0160E0809163010E9481
:100470009E0161E0809165010E949E0160E0809193
:1004800067010E949E01A9CF60E0809161010E94F6
:100490009E0161E0EACF60E0809161010E949E01CF
:1004A00061E0809163010E949E0160E0809165019E
:1004B0000E949E0161E0E3CF60E0809161010E94B3
:1004C0009E0161E0809163010E949E0161E00BC08A
:1004D00060E0809161010E949E0161E08091630172
:1004E0000E949E0160E0809165010E949E0160E093
:1004F00010C060E0809161010E949E0161E08091E6
:1005000063010E949E0160E0809165010E949E014E
:1005100061E0809167010E949E0161E015C060E08A
:10052000809161010E949E0161E0809163010E94BF
:100530009E0160E0809165010E949E0161E08091D2
:1005400067010E949E0160E080916901DF91CF9177
:100550000C949E0161E0E4CF61E0809161010E9412
:100560009E0160E0E2CF61E0809161010E949E0106
:1005700060E0809163010E949E0161E0DBCF61E059
:10058000809161010E949E0160E0809163010E9460
:100590009E0161E0809165010E949E0160E0CFCFE5
:1005A00061E0809161010E949E0160E08BCF60E07C
:1005B000F8CFDF91CF9108958F929F92AF92BF9223
:1005C000EF92FF920F931F93CF93DF93EC0197FF6E
:1005D00004C0CC27DD27C81BD90B181619060CF050
:1005E00082C081E090E0909356018093550104E031
:1005F00010E05AE0E52EF12C209709F490C03FB7A7
:10060000F8948091510190915201A0915301B091C1
:10061000540126B5A89B05C02F3F19F00196A11DD6
:10062000B11D3FBFBA2FA92F982F8827820F911D88
:10063000A11DB11D42E0880F991FAA1FBB1F4A953B
:10064000D1F740916B0150916C0160916D017091F7
:100650006E014C015D01841A950AA60AB70A409101
:100660005701509158016091590170915A018416B7
:100670009506A606B70608F4BFCF80936B0190934A
:100680006C01A0936D01B0936E0180915F01909118
:10069000600120915501309156012130310559F505
:1006A00001969093600180935F0120915B013091EE
:1006B0005C018217930721F41092600110925F0190
:1006C000219780915F019091600120915D013091AF
:1006D0005E01B7012530310509F0B8010E94BC0860
:1006E0000E94CC0189CF892B09F481CF1092560149
:1006F000109255017CCF892B41F480915B01909140
:100700005C019093600180935F0180915F01909103
:10071000600101979093600180935F01D1CFDF91D9
:10072000CF911F910F91FF90EF90BF90AF909F904E
:100730008F900895CF93DF9390E0FC01E656FF4F32
:1007400024918A579F4FFC0184918823C9F090E03F
:10075000880F991FFC01E859FF4FA591B491FC0146
:10076000EE58FF4FC591D49161110DC09FB7F89419
:100770008C91209582238C938881282328839FBF86
:10078000DF91CF910895623051F49FB7F8943C9176
:10079000822F809583238C93E8812E2BEFCF8FB708
:1007A000F894EC912E2B2C938FBFEACF089590E014
:1007B00080E00895862F0C947501862F642F0C9489
:1007C0009E01862F642F0C949A03FC010190002057
:1007D000E9F73197AF01481B590BBC0182EE91E05C
:1007E0000C941F01CF93DF93EC0160E08E810E9497
:1007F0009E0161E08E810E949E0160E08E810E94D8
:100800009E018BE891E00197F1F7DF91CF91089578
:10081000CF92DF92EF92FF920F931F93CF93DF93CC
:100820006C017C0187E0E80EF11CD0E0C0E0062FEF
:1008300010E0B8010C2E02C0759567950A94E2F796
:100840006170F70181917F010E949E012196C43061
:10085000D10579F7C601DF91CF911F910F91FF90DC
:10086000EF90DF90CF900C94F203CF92DF92EF9253
:10087000FF920F931F93CF93DF93EC01F62E642F1B
:100880008C810E949E018D818F3F19F060E00E9453
:100890009E010F2D10E08F8584FF25C06E0187E03B
:1008A000C80ED11CF12CE12CB8010E2C02C075959C
:1008B00067950A94E2F76170F60181916F010E94D9
:1008C0009E01FFEFEF1AFF0A88E0E816F10461F7D6
:1008D000CE01DF91CF911F910F91FF90EF90DF90AC
:1008E000CF900C94F203B80184E0759567958A95D2
:1008F000E1F7CE010E9408046F2DCE01DF91CF9168
:100900001F910F91FF90EF90DF90CF900C9408040F
:1009100040E0682F82EE91E00C94350481E00E9463
:1009200088048BE39FE10197F1F70895CF93DF935C
:10093000823029F49091F10198609093F1018093B5
:10094000F5011092F60180E48093F70180E1809335
:10095000F80180E58093F90161E08091E6010E9451
:100960009A038091E7018F3F19F061E00E949A039A
:1009700061E08091E8010E949A03C2EED1E09E01FD
:10098000225E31408091F10184FD0BC084E090E053
:1009900021962817390744F461E08E810E949A035A
:1009A000EECF88E090E0F4CF8BE39DE00197F1F784
:1009B00060E08091E6010E949E0160E08091E80184
:1009C0000E949E018091E7018F3F19F060E00E9434
:1009D0009E018091F10184FD34C063E082EE91E0DC
:1009E0000E940804CBE4D6E4CE010197F1F763E05E
:1009F00082EE91E00E9408042197F1F763E082EE15
:100A000091E00E94080483E592E00197F1F762E02B
:100A100082EE91E00E9408048091F10180620E94C0
:100A2000880484E08093F2018CE00E9488040E9494
:100A30008E0482E08093F30186E0DF91CF910C94E5
:100A4000880480620E9488048BE496E40197F1F7A1
:100A50008091F10180620E94880483E592E0019711
:100A6000F1F78091F10180620E948804D5CF41E0C6
:100A70000E94350481E090E008952F923F924F92BA
:100A80005F926F927F928F929F92AF92BF92CF921E
:100A9000DF92EF92FF920F931F93CF93DF93CDB727
:100AA000DEB764970FB6F894DEBF0FBECDBF9E01D0
:100AB0002F5F3F4F59013A8B298BF12CE12C412CB0
:100AC000512C3201439431E03093DF018FB7F89419
:100AD00040916F01509170016091710170917201AC
:100AE0008FBF8091CF019091D001A091D101B091A1
:100AF000D201481B590B6A0B7B0B8091DB01909153
:100B0000DC01B0E0A0E084179507A607B707D8F688
:100B100010E08091D901181760F4E091D501F091AF
:100B2000D601E10FF11D62E080810E949A031F5FF0
:100B3000F0CF312C8091DA01381608F064C0C32C54
:100B4000D12CE091D701F091D801EC0DFD1D61E0B1
:100B500080810E949A03E091D701F091D801EC0DB9
:100B6000FD1D60E080810E949E01D301C201032C23
:100B700004C0880F991FAA1FBB1F0A94D2F79C8B31
:100B80008B8B4C0180949094212C8091D901281654
:100B900018F5022D10E0E091D501F091D601E00F9B
:100BA000F11F80810E9475010C5F1F4F000F111F04
:100BB000F801ED58FE4F892B51F480819181AB896A
:100BC000BC898A2B9B2B918380832394DECF8081E9
:100BD000918188219921F7CFE091D701F091D80137
:100BE000EC0DFD1D61E080810E949E018091D70186
:100BF0009091D801C80ED91E60E0F60180810E9454
:100C00009A03339497CF03E711E0F801878D90A101
:100C1000892B31F4148E2FEF3FEF368F258F11A2E1
:100C2000369631E0EF3AF30789F7D12C8091D9015C
:100C3000D81608F053C0C12C8D2C912C880C991C0F
:100C4000C40185589E4F4C012091DA01C21608F06C
:100C500043C0D4016D917C910C2C02C076956795B0
:100C60000A94E2F7D29E900111242C0D311DE3E786
:100C7000F1E080E0458D568D2417350709F4A2C0B8
:100C80008F5F36968A30B1F760FF24C0E3E7F1E06A
:100C900090E080E0448D411118C0E091D301F091C3
:100CA000D401E20FF31F4081B6E0B89FF001B99F75
:100CB000F00D1124ED58FE4F448F368F258F10A272
:100CC000178E61E00E94AF0005C0019636968A300B
:100CD000910501F7C394B8CFD394A8CF80E0F80171
:100CE00091A19111892F0A5F1F4FF1E00F3A1F0761
:100CF000B1F79FB7F89440916F01509170016091E6
:100D00007101709172019FBF4093CF015093D00148
:100D10006093D1017093D201882309F4D4CE8091DD
:100D20009401882309F4CFCE809192019091930190
:100D3000019709F0C8CE10918F01112309F4C3CE99
:100D40001332C9F041E0612F82EE91E00E94350438
:100D5000612F6F70062E000C770BA989BA896D93ED
:100D60007D93BA8BA98BBFEFEB1AFB0AE4E0EE167A
:100D7000F10409F0A8CE88E0E3E1F1E0DE01199684
:100D800001900D928A95E1F79E01275F3F4FEE0C8F
:100D9000FF1CE20EF31E90E080E02E153F05A1F04F
:100DA000D501ED91FD915D01D7017E916E917D019F
:100DB000E69FA001E79F500DF69F500D1124840F70
:100DC000951FEBCF61707ECF64960FB6F894DEBFAF
:100DD0000FBECDBFDF91CF911F910F91FF90EF908C
:100DE000DF90CF90BF90AF909F908F907F906F904B
:100DF0005F904F903F902F9008951F920F920FB6E3
:100E00000F9211242F933F938F939F93AF93BF9390
:100E100080916F0190917001A0917101B091720168
:100E20003091500123E0230F2D3758F50196A11D75
:100E3000B11D2093500180936F0190937001A09396
:100E40007101B09372018091510190915201A09172
:100E50005301B09154010196A11DB11D8093510120
:100E600090935201A0935301B0935401BF91AF915D
:100E70009F918F913F912F910F900FBE0F901F90D8
:100E8000189526E8230F0296A11DB11DD2CF7894A4
:100E900084B5826084BD84B5816084BD85B582607F
:100EA00085BD85B5816085BD80916E008160809330
:100EB0006E00109281008091810082608093810099
:100EC00080918100816080938100809180008160A9
:100ED000809380008091B10084608093B100809104
:100EE000B00081608093B00080917A00846080932C
:100EF0007A0080917A00826080937A0080917A00F3
:100F0000816080937A0080917A00806880937A0073
:100F10001092C10082E00E9496048091F201982F05
:100F200091609093F20189600E948804812C87E887
:100F3000982E83E9A82E83E0B82E90E0E92E90E069
:100F4000F92E0E948E0481E391E00E94E5030E9445
:100F50003D058C01E091F501E23008F043C0E1501D
:100F6000F0E0EE51FE4F848980680E9488048DE392
:100F700091E00E94E5030E943D056C010E948E04F1
:100F80008BE491E00E94E5030E943D052C01209135
:100F90005B0130915C01032E000C440B550BC50125
:100FA000B4010E94D008052C000C66087708CA011D
:100FB000B901A30192010E94D008209357013093F8
:100FC00058014093590150935A01CA94CD2861F4B5
:100FD000C8010E94DC02E114F10409F4B2CF0E94BE
:100FE0000000AFCFE1E0BCCF88279927801B910B91
:100FF000F0CFCF93DF931092750110927901109288
:10100000780110927A018BE291E0909374018093C1
:101010007301EFE8F1E01082148213821582369694
:1010200081E0EB3CF807B9F783E091E09093D601BB
:101030008093D50180E091E09093D8018093D7010F
:1010400084E08093D90193E09093DA0127E031E0C6
:101050003093D4012093D301CAE0D0E0D093DC01D7
:10106000C093DB0124EF31E03093DE012093DD01FA
:101070001092E1011092E0011092CF011092D00184
:101080001092D1011092D2011092DF011092E5016D
:101090001092E4012FE131E03093E3012093E2016B
:1010A00022E02093E6012FEF2093E7019093E801DF
:1010B0008093E90185E08093EA0186E08093EB016B
:1010C00087E08093EC011092ED011092EE011092F6
:1010D000EF011092F0011092F10181E00E9496045C
:1010E0001092600110925F0110925601109255010A
:1010F00010926B0110926C0110926D0110926E01B2
:1011000080E098E090935C0180935B0188E090E040
:101110009093620180936101D0936401C093630155
:1011200089E090E090936601809365018BE090E008
:10113000909368018093670161E088E00E949A03C0
:1011400061E0809163010E949A0361E080916501F2
:101150000E949A0361E0809167010E949A031092B5
:101160006A011092690184E090E090935E0180939F
:101170005D01DF91CF91089597FB072E16F400943F
:1011800007D077FD09D00E94F50807FC05D03EF492
:10119000909581959F4F0895709561957F4F089523
:1011A000052E97FB1EF400940E94E70857FD07D018
:1011B0000E94090907FC03D04EF40C94E7085095EF
:1011C0004095309521953F4F4F4F5F4F0895909533
:1011D0008095709561957F4F8F4F9F4F0895EE0FCB
:1011E000FF1F0590F491E02D0994AA1BBB1B51E150
:1011F00007C0AA1FBB1FA617B70710F0A61BB70B87
:10120000881F991F5A95A9F780959095BC01CD012B
:101210000895A1E21A2EAA1BBB1BFD010DC0AA1F37
:10122000BB1FEE1FFF1FA217B307E407F50720F04F
:10123000A21BB30BE40BF50B661F771F881F991FCA
:101240001A9469F760957095809590959B01AC0113
:0A125000BD01CF010895F894FFCF0F
:10125A000E0F0D1011121331323334353637383937
:10126A002A302301000A006400E803000000003766
:10127A00051F01D703D60300000000E103DD03DAEE
:10128A00034E756D207061736F733A200044657266
:10129A005B315D2F697A715B325D0052504D3A00C5
:00000001FF
